:101F9300B3CCD0F2B3F6B4ED002D2D2D2D00CFFB35
:101FA300B7D1C4A3CABD00CFFBB7D1A3BA00256480
:101FB30000B3E4D6B5C4A3CABD00B3E4D6B5A3BA8F
:101FC30000B6C1BFA8C4A3CABD00B6C1BFA8A3BA07
:101FD3002D2D2D2D00BFAABFA8C4A3CABD00BFAA23
:101FE300BFA8A3BA2D2D2D2D00B5E7C4D4BFD8D6D5
:101FF300C600D7A2B2E1B3C9B9A6002012100100EE
:0120030000DC
:10197100460048FFFFFFFFFFFF5000380000000056
:1019810000000000000000000000000050005200B4
:101991000000000000FF0780690000000000004116
:1019A100003601410037024100630142006400003A
:0E19B1004100620142004E00024200500064FC
:10250E00C295D2B47FD07E07122387C2B4D2952251
:10232F00D295E49001CAF0C295D2B47FC87E001254
:10233F002387C2B4D2957FC87E001223879001CA2B
:09234F00E004F0E0C3940340DE59
:012358002262
:0B218A009001EAEBF0A3EAF0A3E9F0FB
:1021950078ED7C017D017BFF7A1F79FE7E007F064D
:1021A5001200F69001EAE0FBA3E0FAA3E0F8AC0226
:0F21B500AD037B017A0179ED7E007F060200F613
:081F1700E0FBA3E0FAA3E0F9EE
:101F1F00900001120135FF12011C2F2402900205BF
:101F2F00F0900202EBF0A3EAF0A3E9F07FFC122598
:101F3F004A90020674FCF0E4A3F0900205E0FF90D3
:101F4F000207E0C39F5035900202E0FBA3E0FAA323
:101F5F00E0F912011CFF12254A900206E0FF9002E1
:101F6F0002E0FBA3E475F0011201ACA9F0FA120133
:101F7F001C6F900206F0A3E004F080BE900206E012
:041F8F00FF02254ADE
:0E252E00E4900000F0900002F0900001F02216
:0B25640090000574AA1201747F012290
:101A190090020CEBF0A3EAF0A3E9F07B017A0079DC
:101A2900387F26121D06EF60207B017A0079387F06
:101A390026121D06EF601290020CE0FBA3E0FAA348
:101A4900E0F99000047409801C7B017A00793A124C
:101A59001804EF90020C6030E0FBA3E0FAA3E0F970
:101A6900900004740A120174900001120135FF7E7E
:101A7900007D00E92405F9E43AFA12036290006452
:101A8900E4F0A304F07F0022E0FBA3E0FAA3E02442
:101A990005F9E43AA801FCAD037B017A00793A7EA5
:0E1AA900007F041200F69000637401F0FF222B
:0B107D009001D6EBF0A3EAF0A3E9F02D
:101088009000017407120174900005120135900157
:10109800DFF05403640360139001D6E0FBA3E0FA89
:1010A800A3E0F9900004740C0211AE7B017A007978
:1010B800387F26121D06EF60217B017A0079387F80
:1010C80026121D06EF60139001D6E0FBA3E0FAA3F9
:1010D800E0F990000474090211AE7B017A00793AB4
:1010E800121804EF60139001D6E0FBA3E0FAA3E026
:1010F800F9900004740A0211AE7B017A00793A1261
:1011080018C1EF60139001D6E0FBA3E0FAA3E0F961
:10111800900004740B0211AE9001D6E0FBA3E0FA34
:10112800A3E02406F9E43AFA78D97C017D017E002F
:101138007F061200F69001DFE0FD9000BD7401F01B
:10114800A37400F0A3743AF07B017A0179D97F6027
:10115800122004EF60129001D6E0FBA3E0FAA3E0AE
:10116800F99000047404803E9001D6E0FBA3E0FAF5
:10117800A3E0240CF9E43AFA78527C007D017E0061
:101188007F061200F69001DFE0FF7B017A007952BA
:10119800121B53EF602E9001D6E0FBA3E0FAA3E008
:1011A800F990000474061201747E007F067D00E940
:1011B8002406F9E43AFA120362900064E4F0A30406
:1011C800F07F00227E007F067D009001D6E0FBA321
:1011D800E0FAA3E02406F9E43AFA12036290006305
:0411E8007401F0FF9F
:0111EC0022E0
:0B11ED009000D4EBF0A3EAF0A3E9F0BF
:1011F80090000174111201749000051201359000DD
:10120800EDF05403640370139000D4E0FBA3E0FAFC
:10121800A3E0F9900004740C02131E7B017A007994
:10122800387F26121D06EF60217B017A0079387F0E
:1012380026121D06EF60139000D4E0FBA3E0FAA38A
:10124800E0F9900004740902131E7B017A00793AD0
:10125800121804EF60139000D4E0FBA3E0FAA3E0B7
:10126800F9900004740A02131E7B017A00793A127D
:1012780018C1EF60139000D4E0FBA3E0FAA3E0F9F3
:10128800900004740B02131E9000D4E0FBA3E0FA54
:10129800A3E02406F9E43AFA78E77C007D017E00B1
:1012A8007F061200F69000EDE0FD9000BD7401F09D
:1012B800A37400F0A3743AF07B017A0079E77F60A9
:1012C800122004EF60129000D4E0FBA3E0FAA3E040
:1012D800F99000047404803E9000D4E0FBA3E0FA87
:1012E800A3E0240CF9E43AFA78D77C007D017E006B
:1012F8007F101200F69000EDE0FF7B017A0079D7AD
:10130800121B53EF602E9000D4E0FBA3E0FAA3E099
:10131800F990000474061201747E007F107D00E9C4
:101328002406F9E43AFA120362900064E4F0A30494
:0B133800F07F00229000637401F0FFC2
:011343002287
:0B1344009000EEEBF0A3EAF0A3E9F04C
:10134F009000017411120174900005120135900183
:10135F0007F05403640370139000EEE0FBA3E0FA70
:10136F00A3E0F9900004740C0214577B017A007902
:10137F00387F26121D06EF60217B017A0079387FB6
:10138F0026121D06EF60139000EEE0FBA3E0FAA318
:10139F00E0F990000474090214577B017A00793A3E
:1013AF00121804EF60139000EEE0FBA3E0FAA3E045
:1013BF00F9900004740A0214577B017A00793A12EB
:1013CF0018C1EF60129000EEE0FBA3E0FAA3E0F982
:1013DF00900004740B80719000EEE0FBA3E0FAA381
:1013EF00E02406F9E43AFA78017C017D017E007F62
:1013FF00061200F6900107E0FD9000BD7401F0A306
:10140F007400F0A3743AF07B017A0179017F6012C6
:10141F002004EF60129000EEE0FBA3E0FAA3E0F9E6
:10142F0090000474048021900107E0FF7B017A0093
:10143F0079F1121BE9EF9000EE602BE0FBA3E0FACD
:10144F00A3E0F990000474051201747E007F107DF3
:10145F0000E92406F9E43AFA120362900064E4F01A
:10146F00A304F07F0022E0FBA3E0FAA3E02406F937
:10147F00E43AA801FCAD037B017A0079F17E007F8D
:0B148F00101200F69000637401F0FFE3
:01149A00222F
:1023F5007BFF7A1F79939001CE7403F07D01122142
:102405004F7BFF7A1F799C9001CE7403F07D040207
:02241500214F55
:10149B007E007F0A7D007B017A0179E01203629066
:1014AB000037E0700302156D14604124FE700302D7
:1014BB00154D04600302158E7BFF7A1F79A19001F5
:1014CB00CE7403F07D0112214F7BFF7A1F79AAE4C2
:1014DB009001CEF07D0312214F90009374FFF0A387
:1014EB00741FF0A374B1F090004E80327BFF7A1F13
:1014FB0079B49001CE7403F07D0112214F7BFF7AFA
:10150B001F79BDE49001CEF07D0312214F90009323
:10151B0074FFF0A3741FF0A374B1F0900050E0FFC0
:10152B00A3E0900096CFF0A3EFF07B017A0179E076
:10153B001204397B017A0179E09001CE7403F0FD3E
:10154B00803E7BFF7A1F79C49001CE7403F07D013E
:10155B0012214F7BFF7A1F79CDE49001CEF07D03F2
:10156B00801E7BFF7A1F79D89001CE7403F07D012A
:10157B0012214F7BFF7A1F79E1E49001CEF07D03BE
:03158B0012214FDB
:01158E00223A
:0E0EE10090008CE0FCA3E0FDA3E0FEA3E0FF88
:060EEF0090017F1202F8E1
:100EF50090018D7401F0A37401F0A37483F0E47F75
:100F05000F7E27FDFC90017FE0F8A3E0F9A3E0FA4E
:100F1500A3E0FBD31202E7400A90017F120304000D
:100F250000270F90017FE0FCA3E0FDA3E0FEA3E016
:100F3500FF9001901202F8E47BE87A03F9F890013A
:100F450090E0FCA3E0FDA3E0FEA3E0FF120255EF55
:100F55002430FF90018DE0FBA3E475F0011201AC94
:100F6500A9F0FAEF120162900190E0FCA3E0FDA365
:100F7500E0FEA3E0FFE47BE87A03F9F8120255AC42
:100F850000AD01AE02AF039001901202F8E47B645C
:100F9500FAF9F8900190E0FCA3E0FDA3E0FEA3E0E0
:100FA500FF120255EF2430FF90018DE0FBA3E4759D
:100FB500F0011201ACA9F0FAEF120162900190E084
:100FC500FCA3E0FDA3E0FEA3E0FFE47B64FAF9F8EF
:100FD500120255AC00AD01AE02AF039001901202B2
:100FE500F8E47B0AFAF9F8900190E0FCA3E0FDA390
:100FF500E0FEA3E0FF120255EF2430FF90018DE0E3
:10100500FBA3E475F0011201ACA9F0FAEF1201623D
:10101500900190E0FCA3E0FDA3E0FEA3E0FFE47BEC
:101025000AFAF9F8120255AC00AD01AE02AF039011
:1010350001901202F8900190A3A3A3E02430FF9041
:10104500018DE0FBA3E475F0011201ACA9F0FAEF04
:1010550012016290018DE0FBA3E475F0011201AC71
:10106500A9F0FAE41201627B017A0179839001CE3D
:081075007403F07D0402214F19
:0B167F009001BAEBF0A3EAF0A3E9F041
:10168A009001C77401F0A37401F0A374BDF0E4FFE4
:10169A009001BAE0FBA3E0FAA3E0F912011CC454DA
:1016AA000FFEC39400400BEED394095005EE24308C
:1016BA008003EE2437FD9001C7E0FBA3E475F00137
:1016CA001201ACA9F0FAED1201629001BAE0FBA393
:1016DA00E0FAA3E0F912011C540FFEC39400400B78
:1016EA00EED394095005EE24308003EE2437FE90A1
:1016FA0001C7E0FBA3E475F0011201ACA9F0FAEE10
:10170A001201629001BBE475F0011201960FEF64B9
:10171A0004600302169A9001C7E0FBA3E475F00186
:10172A001201ACA9F0FAE41201627B017A0179BDD7
:0B173A009001CE7403F07D0202214FED
:1021C400E4900036F07BFF7A1F79EC9001CE740323
:1021D400F07D0112214F7BFF7A1F799C9001CE7410
:1021E40003F07D0412214F7BFF7A1F799C9001CE6E
:0A21F4007403F0FD12214F7F012259
:0C2558009000367401F012149B7F0122E9
:10158F007FFE900001E06401600302167E90020F5F
:10159F007401F0A37400F0A37403F090020FE0FB4A
:1015AF00A3E0FAA3E0F9900001120135FE12011C2D
:1015BF002E2403FEE4FDEE14FCEDC39C50107403C7
:1015CF002DF582E43400F583E06FFF0D80E8900283
:1015DF000FE0FBA3E0FAA3E0F99000021201C212A0
:1015EF000335160D000216120003162201101632D3
:1015FF0001201642013016520140000016621225DA
:10160F0064806390020FE0FBA3E0FAA3E0F9121AE3
:10161F0019805390020FE0FBA3E0FAA3E0F9121038
:10162F007D804390020FE0FBA3E0FAA3E0F91213D1
:10163F0044803390020FE0FBA3E0FAA3E0F912110C
:10164F00ED802390020FE0FBA3E0FAA3E0F912254F
:10165F0058801390020FE0FBA3E0FAA3E0F990008B
:0F166F0004740212017490020F121F1712252E1D
:01167E002249
:101AB7007FFEE490020BF0900001E06401600302F6
:101AC7001B4D9002087401F0A37400F0A37403F097
:101AD700900208E0FBA3E0FAA3E0F99000011201ED
:101AE70035FE12011C2E2403FEE4FDEE14FCEDC3AB
:101AF7009C501074032DF582E43400F583E06FFFEA
:101B07000D80E8900208E0FBA3E0FAA3E0F990005B
:101B1700021201C21203351B26014100001B3112BC
:101B270021C490020B7401F08013900208E0FBA31C
:101B3700E0FAA3E0F990000474021201749002081D
:0B1B4700121F1712252E90020BE0FF6A
:011B52002270
:10073900121AB7EF64017003020A6F1220BFEF2487
:10074900FE601C14602C14603A2403704C9000372E
:100759007402F07BFF7A1F79A19001CE0480349056
:1007690000377401F07BFF7A1F79B49001CE7403CE
:1007790080219000377403F07BFF7A1F79C49001C0
:10078900CE8010E4900037F07BFF7A1F79D8900172
:10079900CE7403F07D0112214F7B017A0079387FF5
:1007A90026121D06EF60107B017A0079387F261228
:1007B9001D06EF6002801A7B017A00793A1218044B
:1007C900EF6002800C7B017A00793A1218C1EF6060
:1007D9000302149B7B017A00793A12167F7B017A16
:1007E90000798612218A900037E014700302089874
:1007F900147003020944147003020A1F24036003DE
:10080900020A6C9000BD7401F0A37400F0A3743A5D
:10081900F07B017A0079487D047F60122004EF6043
:1008290003020A4D7E007F107D007B017A007976F4
:100839001203627B017A0079767F04121B53EF6001
:1008490003020A4D78767C007D017B017A0079529A
:100859007E007F101200F678767C007D017B017A9C
:100869000079867E007F061200F67B017A00797690
:100879007F07121B53EF6003020A4D7BFF7A1F7932
:10088900F59001CE7403F07D0112214F020A6690A2
:1008990000BD7401F0A37400F0A3743AF07B017AEF
:1008A9000079867D047F60122004EF6003020A4DFF
:1008B9007B017A0079667F04121BE9EF6003020A63
:1008C9004D788C7C007D017B017A0079667E007F02
:1008D900041200F690008CE0F8A3E0F9A3E0FAA373
:1008E900E0FB900050E0FEA3E0FFEE3395E0FDFC55
:1008F900EB2FFFEA3EFEE93DFDE83CFC90008C123F
:1009090002F87E007F107D007B017A007976120360
:100919006278767C007D017B017A00798C7E007F8C
:10092900041200F67B017A0079767F04121B53EFDB
:100939006003020A4D120EE1020A669000BD7401BD
:10094900F0A37400F0A3743AF07B017A0079867DF4
:10095900047F60122004EF6003020A4D7B017A00D4
:1009690079667F04121BE9EF6003020A4D788C7CDB
:10097900007D017B017A0079667E007F041200F612
:10098900E47F08FEFDFC90008CE0F8A3E0F9A3E009
:10099900FAA3E0FBC31202E7500C1223F59000649E
:1009A900E4F0A304F02290008CE0FCA3E0FDA3E0B6
:1009B900FEA3E0FFC006C00790004EE0FEA3E0FBE7
:1009C900AA06EA3395E0F9F8D007D006C3EF9BFFF2
:1009D900EE9AFEED99FDEC98FC90008C1202F87EDF
:1009E900007F107D007B017A0079761203627876A8
:1009F9007C007D017B017A00798C7E007F041200E6
:100A0900F67B017A0079767F04121B53EF6002802E
:100A190033120EE180479000BD7401F0A37400F019
:100A2900A3743AF07B017A0079867D047F601220F5
:100A390004EF6002800E7B017A0079667F04121B45
:100A4900E9EF60030223F5788C7C007D017B017A54
:100A59000079667E007F041200F6120EE1900063B1
:060A69007401F012206D83
:010A6F002264
:10223700900036E0700512158F800A900036E0B4E2
:102247000103120739900063E06005E4F012250EE0
:10225700900064E07002A3E0600AE4900064F0A3D9
:05226700F012232F22FC
:0419BF0041021200CF
:1020BF00D2B7D2A1C2B70020B60C900212E07006C0
:1020CF00740FF07F012220A20C900212E0700674B0
:1020DF000FF07F0222D2B7D2A1C2A10020B60C907E
:1020EF000212E07006740FF07F032220A20C900200
:0D20FF0012E07006740FF07F04227F0022B3
:1024D800EF1FAC0670011E4C6008000000000000F1
:0324E80080EE2261
:1024FD007580FFD2B2C2B3D2B5E58020E7FBC2B57D
:01250D0022AB
:10251E001224FDC2B2A20992B38F80D2B5C2B522E7
:1021FE00EF24FE600F14601114601324037018EDA9
:10220E002480800DED24908008ED24888003ED2439
:10221E0098FBE433FA80047A007B80AF03C2091284
:09222E00251E7F017E000224D868
:10214F009001CAEBF0A3EAF0A3E9F0AF059001CE3E
:10215F00E0FD1221FE9001CAE0FBA3E0FAA3E0F933
:10216F0012011CFFD394004011D20912251E9001B9
:0B217F00CBE475F00112019680DB221A
:1023D200C2097F3012251EC2097F0812251EC209BA
:1023E2007F1012251EC2097F0C12251EC2097F0111
:0323F20002251EA3
:101D8E00B4B4CBBCCDA8D0C5007777772E6373677C
:101D9E00736D2E636F6D00C0B6D1C0C4A3BFE900D2
:101DAE006631006630006B3131006B3130006B32C2
:101DBE0031006B3230006B3331006B3330002B004F
:101DCE004552003A004E4543002D2D2D2D2D2D2D23
:101DDE002D2D2D2D2D2D2D2D2D000D0A53454E441F
:101DEE00204F4B0D0A002020C0B6D1C0C4A3BFE9BE
:101DFE00202000207777772E637367736D2E636FC5
:041E0E006D20200023
:042383007FE87E036E
:10238700EF1FAA0670011E4A6019E4FCFDC3ED9415
:102397002CEC940150EA0000000000000DBD000184
:0323A7000C80EABD
:0123AA002210
:0B256F0053B1EF43B210C2B4D295226A
:05258300C2B4D2952254
:01000A0022D3
:012588002230
:1024C400C2AF12248412257A12256F1225831200BA
:0424D4000AD2AF2257
:100A7000E58720E40843871075C76080035387EF3C
:100A80001223D27BFF7A1D798E9001CE7402F0FD85
:100A900012214F7BFF7A1D79979001CE7401F07D72
:100AA0000412214F1223831223D27F027E001223CD
:100AB000877BFF7A1D79A59001CE7402F07D01122B
:100AC000214F7BFF7A1D79979001CE7401F07D0252
:100AD00012214F1224C4122359D293D2947FF47E50
:100AE000011223877B017A0079031224AFD3EF949C
:100AF00000EE6480948040E59001CD74FFF0A37413
:100B00001DF0A374AEF07B017A007903121745E95A
:100B10004A4B600612250E1223839001CD74FFF01C
:100B2000A3741DF0A374B1F07B017A00790312174E
:100B300045E94A4B600612232F1223839001CD749E
:100B4000FFF0A3741DF0A374B4F07B017A00790365
:100B5000121745E94A4B6002C2909001CD74FFF034
:100B6000A3741DF0A374B8F07B017A007903121707
:100B700045E94A4B6002D2909001CD74FFF0A37416
:100B80001DF0A374BCF07B017A007903121745E9CC
:100B90004A4B6002C2919001CD74FFF0A3741DF026
:100BA000A374C0F07B017A007903121745E94A4B20
:100BB0006002D2919001CD74FFF0A3741DF0A37474
:100BC000C4F07B017A007903121745E94A4B6002B1
:100BD000C2929001CD74FFF0A3741DF0A374C8F00D
:100BE0007B017A007903121745E94A4B6002D292E1
:100BF0009001CD74FFF0A3741DF0A374CCF07B01C1
:100C00007A007903121745E94A4B6003020CCA9037
:100C100001CD74FFF0A3741DF0A374CEF07B017AB4
:100C2000007903121745E94A4B6003020CCA900190
:100C3000CD74FFF0A3741DF0A374D1F07B017A0092
:100C40007903121745E94A4B6003020CCA9001CDA3
:100C500074FFF0A3741DF0A374D3F07B017A0079C4
:100C600003121745E94A4B70617BFF7A1D79D790D3
:100C700001CEF07D0312214F7BFF7A1D79D7E490DE
:100C800001CEF07D0412214F7B017A007903E490BC
:100C900001CEF07D0312214F7B017A0079031222ED
:100CA0006C7BFF7A1D79E812226C7BFF7A1D79F448
:100CB000E49001CEF07D0112214F7BFF7A1E790175
:100CC000E49001CEF07D0212214F122359020ADD79
:10000E00E4FDFCC3ED9FEC9E500A0000000DBD0008
:04001E00010C80EF62
:0100220022BB
:10245600E4FFFEEF25E0FFC2A630A4034401FFD24D
:06246600A60EEEB408ED25
:01246C00224D
:10241700E4FEEF30E704D2A58002C2A50000C2A601
:0F2427000000D2A60000EF25E0FF0EEEB408E3A0
:012436002283
:10249A00E4FEC2A7EF25E0547E4480FF12241712FF
:0424AA002456D2A73B
:0124AE00220B
:1022D1001222ED7D1E7F2D1222EDE4FD7F2C1222B4
:0C22E100ED7D8D7F2A1222ED7D3E7F2BCB
:1022ED00C2A7EF25E0547EFF122417AF0512241765
:0222FD00D2A766
:0122FF0022BC
:05246D00F07D087F086E
:02247200AC07B5
:10247400E4FE12249AAE07AF04EDF45EFD0222EDF1
:0E243700122472E4FD7F011222ED7D807F0AE7
:02244500AC07E2
:0F244700E4FE12249AAE07AF04ED4EFD0222ED23
:061E12007B017A01796DED
:0E1E18009001FBEBF0A3EAF0A3E9F0A3EDF0DC
:101E26007D047F05122437E4FC9001FEE0FFECC33D
:101E36009F501C9001FBE0FBA3E0FAA3E0F98C8223
:101E4600758300120135FD7F091222ED0C80DA7DC3
:101E5600037F011222ED7CFF7F0512249A1CEC60A1
:101E660004EF30E2F37F2212249A9001FFE0FBA3F5
:101E7600E0FAA3E0F9EF1201627F2112249A9001A1
:101E8600FFE0FBA3E0FAA3E0F9900001EF02017482
:100CD0009001ADF0A37401F0A37401F0A3746DF062
:100CE000A37401F0A37401F0A3746BF07A01796D21
:040CF0007B017F0CF9
:100CF4009001AAEBF0A3EAF0A3E9F09001A9EFF0C8
:100D04009001B474FEF0E4A3F0A3F0EF24F46010B7
:100D140024FE70169001B57412F0A37410F0800ACA
:100D24009001B57477F0A37430F09001B5E044807D
:100D3400FD7F021222ED7D807F04122437E49001AE
:100D4400B8F0A3F09001ADE0FF9001B8E0FCA3E09F
:100D5400FDC39FEC940050289001AAE0FBA3E0FAA5
:100D6400A3E0F98D828C83120135FD7F091222EDF7
:100D74009001B9E004F070CC9001B8E004F080C4B4
:100D84009001A9E0FD7F011222EDE0B40C077D8003
:100D94007F0D1224459001B87407F0A374D0F07F3E
:100DA4000412249A9001B7EFF09001B9E024FFF007
:100DB4009001B8E034FFF0E07002A3E0601190010C
:100DC400B7E0FF20E0099001B6E0FEEF5E60D07D61
:100DD400807F0D1224729001B8E07002A3E07003CA
:100DE400020ECD7F0612249AEF541B6003020EC735
:100DF4009001B4F0A3E0FF9001B7E05F30E006900B
:100E040001B474FFF09001A9E0640C6003020ECDFC
:100E14007F0A12249A9001B7EFF07F0C12249AEF04
:100E24005407FD6026E024FFFFE434FFFEEF78035F
:100E3400C333CE33CED8F97C002DFFEC3EF99001BC
:100E4400B1E0FBA3E0FAA3E0C980169001B7E07516
:100E5400F008A4FF9001B1E0FBA3E0FAA3E0F9E5F8
:100E6400F08FF01201FA9001B7E0700204F09001E3
:100E7400B7E0D3941240037412F0E49001B8F0A3E5
:100E8400F09001B7E0FFC39001B9E09F9001B8E092
:100E9400940050357F0912249A9001AEE0FBA3E040
:100EA400FAA3E0F99001B8E0FCA3E0F5828C83EFAB
:100EB4001201749001B9E004F070C69001B8E00426
:100EC400F080BE9001B474FEF07D807F0C12244546
:0C0ED400E4FD7F011222ED9001B4E0FF6C
:010EE00022EF
:0D1D0600900121EFF0A3EBF0A3EAF0A3E9B8
:101D130012246D7D077F0D1222ED7D037F141224A3
:101D230045900121E0900127F09001AD7401F0A3EB
:101D3300F0A37401F0A37427F0A37401F0A374015A
:101D4300F0A37425F07A017927120CF0EF70399023
:101D53000125E07004A3E06410702D900127E0FEDC
:101D6300900122E0FBA3E0FAA3E0F9EE12016290F6
:101D73000128E0FE900122E0FBA3E0FAA3E0F99042
:0A1D83000001EE12017480027FFEE1
:011D8D002233
:0B180400900108EBF0A3EAF0A3E9F06C
:10180F00E490010C12246DE4FD7F0D1222ED7D801A
:10181F007F0E12247290010F7493F0A37420F09036
:10182F0001AD7402F07B01A314F0A37401F0A37453
:10183F000FF0A3EBF0A37401F0A3740DF07A01790C
:10184F000F7F0C120CF490010BEFF07058FC740F1B
:10185F002CF582E43401F583E0FE900108E0FBA350
:10186F00E0FAA3E0F9AF048F82758300EE120174E2
:10187F0090010CE0FE740F2FF582E43401F583E044
:10188F00FDEE6D90010CF00CECB404C2740F2CF54E
:10189F0082E43401F583E0FF90010CE06F60069065
:1018AF00010B74FEF07D807F0E12244590010BE03A
:0118BF00FF29
:0118C0002205
:0B18C100900151EBF0A3EAF0A3E9F066
:1018CC009001567493F0A37470F0E490015CF0FCFA
:1018DC00900151E0FBA3E0FAA3E0F9AF048F82750D
:1018EC008300120135FE74582FF582E43401F58320
:1018FC00EEF090015CE0FE8F82758300120135FDE5
:10190C00EE6D90015CF00CECB404C59001FF740119
:10191C00F0A37401F0A3745DF07B017A0179567D1C
:10192C0007121E1812246E9001AD7409F0A37401F5
:10193C00F0A37401F0A37456F0A37401F0A3740126
:10194C00F0A37454F07B017A0179567F0C120CF4DD
:10195C00EF700F900154E07004A3E064187003FF63
:04196C0080027FFE78
:011970002254
:102004009000C2EFF0A3EDF078C47C007D017E0067
:102014007F061200F678CA7C007D019000BDE0FBCB
:10202400A3E0FAA3E0F97E007F061200F69001AD6A
:10203400740CF0A37401F0A37400F0A374C2F0A3B1
:102044007401F0A37400F0A374C0F07B017A0079EA
:10205400C27F0E120CF4AD07ED70097F0812249AAA
:08206400EF20E3027DFEAF0551
:01206C002251
:0B1BE900900139EBF0A3EAF0A3E9F053
:101BF40090013F7430F0A3EFF09001FF7401F0A363
:101C04007401F0A37441F07B017A01793F7D0212E3
:101C14001E189001AD7404F0A37401F0A37401F0D4
:101C2400A3743FF0A37401F0A37401F0A3743DF016
:101C34007B017A01793F7F0C120CF490013CEFF0A8
:101C44007028A3E07004A3E06490701E900139E052
:101C5400FBA3E0FAA3E0F8AC02AD037B017A0179BF
:101C64003F7E007F101200F6800690013C74FEF067
:051C740090013CE0FFBF
:011C79002248
:0B1B5300900168EBF0A3EAF0A3E9F0BA
:101B5E0090016D74A0F0A3EFF09001FF7401F0A35B
:101B6E007401F0A3746FF07D02121E127404120C35
:101B7E00D0EF701690016BE07004A3E06404700A5D
:101B8E0090016DE0540F640A60027FFEEF704B7897
:101B9E006D7C017D01900168E0FBA3E0FAA3E0F902
:101BAE007E007F101200F69001FF7401F0A3740105
:101BBE00F0A3747DF07D10121E127412120CD0EF71
:101BCE00701690016BE07004A3E06404700A90013B
:0A1BDE006DE0540F640A60027FFE00
:011BE80022DA
:10206D009001977450F0E4A3F07B019001FF04F010
:10207D00A37401F0A37499F07A0179977D02121E71
:10208D00189001AD7404F0A37401F0A37401F0A3D2
:10209D007497F0A37401F0A37401F0A37495F07B11
:1020AD00017A0179977F0C120CF4900194EFF07F77
:0120BD000022
:0120BE0022FF
:10229F00D2A37F0A7E0012000EC2A312000ED2A399
:1022AF0012000E7D0F7F011222ED7F0A7E001200B9
:1022BF000E7D3D7F111222D17D407F151222ED7FC1
:0222CF000022EB
:10230000EF6441702412246E7D3D7F111222ED7D19
:10231000867F171222ED7D7F7F261222D17FE87EF5
:0F2320000312000E1224EB80037FFF227F0022A6
:1024EB007F1412249AEF540370077D037F14122478
:0124FB00459B
:0124FC0022BD
:070003007D037F140224724B
:0E253C0012229F1200031224EB7F41022300A3
:0F19C3004201F500004201F900004201F300006B
:10248400758921758C69758AFAD2A9D28C758DFBF0
:06249400758BFBD28E22C5
:03000B00021E963C
:101E9600C0E0C0F0C083C082C0D075D000C000C012
:101EA60001C002C003C004C005C006C007758C6926
:101EB600758AFA9001FAE004F070069001F9E004E0
:101EC600F09001F4E004F070069001F3E004F09065
:101ED6000212E0600214F09001F5E475F0011201BF
:101EE600ACFEC3E5F09402EE9400400A900002E0D6
:101EF600B4010312252ED007D006D005D004D00396
:101F0600D002D001D000D0D0D082D083D0F0D0E0A3
:011F16003298
:1019D2006032000300000000000000000000000070
:1019E20000000000000000000000000000000000F5
:1019F20000000000000000000000000000000000E5
:101A020000000000000041000000410035004100DC
:061A12000200410001008A
:0E254A00C2ACC2998F993099FDC299D2AC22D1
:10226C009001CAEBF0A3EAF0A3E9F09001CAE0FBFD
:10227C00A3E0FAA3E0F912011C60179001CAA3E4D1
:10228C0075F0011201ACA9F0FA12011CFF12254ADB
:03229C0080D922C4
:0300230002210CAB
:0F210C00C0E0C083C082C0D075D000C006C0073D
:10211B00309824C298AF99900000E0C394324004E9
:10212B00E4F08013900000E0FE04F074032EF582BF
:07213B00E43400F583EFF02E
:0D214200D007D006D0D0D082D083D0E032BC
:09257A00759850D2AC43A28022F6
:10235900E4FFFE7D33FCC2ACC3EF9DEE9C501374C9
:10236900032FF582E43400F583E4F00FBF00010E7A
:0923790080E6E4900000F0D2AC13
:012382002238
:03000000021C7A65
:0C1C7A00787FE4F6D8FD758121021CC1C2
:10002600E709F608DFFA8046E709F208DFFA803EBC
:1000360088828C83E709F0A3DFFA8032E309F608A9
:10004600DFFA8078E309F208DFFA807088828C8311
:10005600E309F0A3DFFA806489828A83E0A3F608C5
:10006600DFFA805889828A83E0A3F208DFFA804C9F
:1000760080D280FA80C680D4806980F28033801076
:1000860080A680EA809A80A880DA80E280CA8033DF
:1000960089828A83ECFAE493A3C8C582C8CCC58357
:1000A600CCF0A3C8C582C8CCC583CCDFE9DEE78027
:1000B6000D89828A83E493A3F608DFF9ECFAA9F0A6
:1000C600EDFB2289828A83ECFAE0A3C8C582C8CCFC
:1000D600C583CCF0A3C8C582C8CCC583CCDFEADE15
:1000E600E880DB89828A83E493A3F208DFF980CC77
:1000F60088F0EF60010E4E60C388F0ED2402B40470
:100106000050B9F582EB2402B4040050AF23234516
:06011600822390007673C5
:10011C00BB010689828A83E0225002E722BBFE02E1
:09012C00E32289828A83E4932214
:10013500BB010CE58229F582E5833AF583E022507F
:1001450006E92582F8E622BBFE06E92582F8E222C9
:0D015500E58229F582E5833AF583E49322E3
:10016200BB010689828A83F0225002F722BBFE017C
:02017200F32276
:10017400F8BB010DE58229F582E5833AF583E8F0C1
:10018400225006E92582C8F622BBFE05E92582C86D
:02019400F22255
:10019600C5F0F8A3E028F0C5F0F8E58215827002F4
:0601A6001583E038F02291
:1001AC00A3F8E0C5F025F0F0E58215827002158306
:0601BC00E0C838F0E82263
:1001C200BB0110E58229F582E5833AF583E0F5F07B
:1001D200A3E0225009E92582F886F008E622BBFE58
:1001E2000AE92582F8E2F5F008E222E5832AF5839E
:0801F200E993F5F0A3E9932263
:1001FA00BB010A89828A83F0E5F0A3F0225006F750
:0F020A0009A7F01922BBFE06F3E5F009F319224C
:1002190075F008758200EF2FFFEE33FECD33CDCC9C
:1002290033CCC58233C5829BED9AEC99E58298401F
:100239000CF582EE9BFEED9AFDEC99FC0FD5F0D6FC
:10024900E4CEFBE4CDFAE4CCF9A88222B800C1B926
:100259000059BA002DEC8BF084CFCECDFCE5F0CB64
:10026900F97818EF2FFFEE33FEED33FDEC33FCEB9D
:1002790033FB10D703994004EB99FB0FD8E5E4F958
:10028900FA227818EF2FFFEE33FEED33FDEC33FC45
:10029900C933C910D7059BE99A4007EC9BFCE99A39
:1002A900F90FD8E0E4C9FAE4CCFB2275F010EF2F7E
:1002B900FFEE33FEED33FDCC33CCC833C810D7077E
:1002C9009BEC9AE899400AED9BFDEC9AFCE899F8B9
:0E02D9000FD5F0DAE4CDFBE4CCFAE4C8F9224C
:1002E700EB9FF5F0EA9E42F0E99D42F0E89C45F06D
:0102F70022E4
:0C02F800ECF0A3EDF0A3EEF0A3EFF02279
:10030400A8828583F0D083D08212031B12031B12B0
:10031400031B12031BE473E493A3C583C5F0C583D5
:10032400C8C582C8F0A3C583C5F0C583C8C582C843
:0103340022A6
:10033500D083D082F8E4937012740193700DA3A357
:1003450093F8740193F5828883E473740293B5F08E
:0D035500067403936860E9A3A3A3A380D8F6
:1003D400E5082493F582E43400F583E005082290CF
:1003E4000090300703900093E475F00112038E022D
:1003F400011C2000E97F2ED2008018EF540F2490B6
:10040400D43440D4FF30040BEF24BFB41A0050039B
:100414002461FFE50960021509050CE50C7002056D
:100424000B30070E900090E475F00112038EEF027A
:1004340001620223AB7403D2078003E4C207F50808
:100444009000901203A5E4F509F50BF50CE509609D
:10045400077F2012041780F5750AFFC201C200C28B
:1004640002C203C205C206C2081203E3FF700D30C4
:1004740007057F00120428AF0CAE0B22B4255FC21F
:10048400D5C2041203E3FF24D0B40A00501A75F055
:100494000A780930D50508B6FF0106C6A426F62059
:1004A400D5047002D20380D924CFB41A00EF5004CB
:1004B400C2E5D204020629D20180C6D20080C0D28D
:1004C4000280BCD2D580BAD20580B47F2012041732
:1004D4002002077401B5090040F11203D4FF12048D
:1004E40017020451D208D20680951203D4FB1203DA
:1004F400D4FA1203D4F94A4B700679FA7A067BFFD0
:1005040020022EE509602A7E008E82758300120186
:100514003560060EEE650A70F0C2D5EBC0E0EAC0A5
:10052400E0E9C0E0EE120670D0E0F9D0E0FAD0E0E5
:10053400FB12011CFF60AAEBC0E0EAC0E0E9C0E0E6
:10054400120417D0E02401F9D0E03400FAD0E0FB23
:10055400E50A0460DCD50AD980877BFF7A06796CCA
:10056400D202809C791080027908C206C2088008F1
:10057400D2D5790A8004790AC2D5E50A047002F555
:100584000AE4FAFDFEFF1203D4FC7B0820011312D7
:1005940003D4FD7B1030000A1203D4FE1203D4FFEF
:1005A4007B20EC3382D592D55013C3E43000069FF0
:1005B400FFE49EFEE42001039DFDE49CFCE4CBF8F3
:1005C400C201EC700CCFCECDCCE824F8F870F380E7
:1005D40017C3EF33FFEE33FEED33FDEC33FCEB33A7
:1005E400FB994002FB0FD8E9EB300105F8D0E0C4D9
:1005F40048B201C0E00AEC4D4E4F78207B0070C237
:10060400EAB50A0040BCC0E0120672D0F0D0E02087
:100614000104C4C0E0C4B201C0F0120400D0F0D59B
:10062400F0EB0204511203AE04EE5305685804BF04
:100634004C04BB42056C4F05744405744904D4430F
:08064400057A55055E46055ECE
:10064C0045055E47071A5004C32D04C72E04EA2B38
:10065C0004CB2304E82007032A048348000004E2A7
:10066C003F3F3F00790AA2D5200314300509B91089
:10067C00020404B9080104A2D5200602500104208A
:10068C0002689202B509005034C0E07F2030031993
:10069C007F30A20272067205500F1206C9C202C246
:1006AC0006C205C2087F30800F300503E9C0E01296
:1006BC000417300503D0E0F9D0E0B509CC300517AC
:1006CC007F30B9100C1204177F583004077F7880E4
:1006DC0003B908031204173002057F2D0204177F9B
:1006EC00202008F87F2B2006F322920280CF286E60
:1006FC00756C6C2900D2011203D43001F8C2017858
:10070C000930D50108F60204832D504349581203D1
:10071C00D42403B405004001E49007159312040897
:0D072C00743A120408D2037509040205682E
:1024AF00E4FFFE12011C600C0FEF70010E09E970C2
:0524BF00F20A80EF228B
:101745009001CAEBF0A3EAF0A3E9F0A3E0FBA3E064
:10175500FAA3E0F912011C70030217F19001CAE027
:10176500FBA3E0FAA3E0F912011C70030217FD9038
:1017750001CDE0F9A3E0FAA3E0A3C9F0A3EAF0A341
:10178500E9F09001CAA3E0FAA3E0F99001D3EBF0E8
:10179500A3EAF0A3E9F09001D0E0FBA3E0FAA3E00F
:1017A500F912011CFF60269001D3E0FBA3E0FAA328
:1017B500E0F912011C6F70159001D175F00112014D
:1017C500969001D4E475F00112019680C99001D07C
:1017D500E0FBA3E0FAA3E0F912011C7002800D9072
:1017E50001CBE475F0011201960217619001CAE080
:0F17F500FBA3E0FAA3E0F9227B007A007900223F
:10036200EF4E6012EF60010EEDBB010B89828A83B2
:10037200F0A3DFFCDEFA2289F05007F709DFFCA9BF
:0C038200F022BBFEFCF309DFFCA9F02216
:101C8600020A70E493A3F8E493A34003F68001F2FA
:101C960008DFF48029E493A3F85407240CC8C3335F
:101CA600C4540F4420C8834004F456800146F6DF2E
:101CB600E4800B0102040810204080901971E47E34
:101CC600019360BCA3FF543F30E509541FFEE49323
:101CD600A360010ECF54C025E060A840B8E493A3EA
:101CE600FAE493A3F8E493A3C8C582C8CAC583CA15
:101CF600F0A3C8C582C8CAC583CADFE9DEE780BECD
:011A180000CD
:10038E00F8E0FBA3A3E0F925F0F0E58215827002F8
:07039E001583E0FA38F0229C
:0903A500EBF0A3EAF0A3E9F02259
:1003AE00D083D082F8E4937012740193700DA3A3DE
:1003BE0093F8740193F5828883E4737402936860F2
:0603CE00EFA3A3A380DFF2
:1023AB00EFB40A07740D1223B6740A309811A8996A
:1023BB00B8130CC2983098FDA899C298B811F63092
:0723CB0099FDC299F599226A
:00000001FF
